:020000040800F2
:1000000000500020D10600085906000861060008CB
:100010006906000871060008790600080000000063
:100020000000000000000000000000008106000841
:100030008D0600080000000099060008A5060008CB
:100040001907000819070008190700081907000810
:100050001907000819070008190700081907000800
:1000600019070008190700081907000819070008F0
:1000700019070008190700081907000819070008E0
:1000800019070008190700081907000819070008D0
:10009000B106000819070008190700081907000829
:1000A00019070008190700081907000819070008B0
:1000B0006903000819070008190700081907000854
:1000C0001907000819070008190700081907000890
:1000D0001907000819070008190700081907000880
:1000E0001907000819070008190700080000000098
:1000F0000000000000000000000000000000000000
:0C01000000000000000000005FF808F1A3
:10010C0010B5054C237833B9044B13B10448AFF345
:10011C0000800123237010BDA4010020000000000A
:10012C00946A000808B5034B1BB103490348AFF3AD
:10013C00008008BD00000000A8010020946A00089F
:10014C0010F8012B11F8013B012A28BF9A42F7D075
:10015C00D01A704780B483B000AF0346FB7197F997
:10016C000730002B0BDBFB7903F01F02064997F9D4
:10017C0007305B09012000FA02F241F8232000BF8E
:10018C000C37BD4680BC704700E100E080B483B002
:10019C0000AF03463960FB7197F90730002B0ADB7F
:1001AC003B68DAB20C4997F907301201D2B20B4412
:1001BC0083F800230AE03B68DAB20849FB7903F0C4
:1001CC000F03043B1201D2B20B441A7600BF0C375A
:1001DC00BD4680BC704700BF00E100E000ED00E0D0
:1001EC0080B584B000AF78600023FB60514978681B
:1001FC00FFF7A6FF0346002B02D10123FB6012E0A0
:10020C004D497868FFF79CFF0346002B02D102236F
:10021C00FB6008E049497868FFF792FF0346002B22
:10022C0001D10323FB60FB68032B36D0FB68032B47
:10023C007BDCFB68012B1AD0FB68022B75D1404B81
:10024C001A68404B1B689A426ADA3D4B1B680122C4
:10025C009A403D4B5A613A4B1B680133384A136044
:10026C00374B1B6801229A40374B1A615DE0344BC7
:10027C001B68012B56DD324B1B6801229A40324B16
:10028C005A612F4B1B68013B2D4A13602C4B1B688A
:10029C0001229A402C4B1A6147E02C4B1B68591CCD
:1002AC002B4B83FB01239A10CB17D21A13469B00BE
:1002BC0013445B00CA1A254B1A60214B1A68234B56
:1002CC001B68013A234941F823201D4B1A681F4B28
:1002DC001B680132204941F823201C4B1B681D4A26
:1002EC0052F82330002B08DD184B1B68194A52F8C2
:1002FC00233001229A40144B1A61144B1B68164A86
:10030C0052F823200F4B1B689A420DDC0F4B1B68D5
:10031C00114A52F8233001229A400B4B1A6103E028
:10032C0000BF02E000BF00E000BF00BF1037BD46B9
:10033C0080BD00BFAC6A0008B46A0008BC6A000843
:10034C000000002004000020000801402C020020C6
:10035C0067666666040200200800002080B483B043
:10036C0000AF4FF080431B6903F00103002B56D004
:10037C004FF080431B694FF0804223F0010313615F
:10038C0000237B6042E0284A7B6852F82330002B24
:10039C0018DD254A7B6852F8233001229A40234B02
:1003AC005A61214A7B6852F823305A1E1E497B68D9
:1003BC0041F823201C4A7B6852F8233001229A40D2
:1003CC001A4B1A611A4A7B6852F82320194B1B6886
:1003DC009A4218DC164A7B6852F8233001229A4064
:1003EC00124B5A61124A7B6852F823305A1C10493E
:1003FC007B6841F823200E4A7B6852F82330012297
:10040C009A400A4B1A617B6801337B607B68092B2D
:10041C00B9DD094B1B6801229A40044B1A6100BFDD
:10042C000C37BD4680BC7047040200200008014018
:10043C0008000020040000200000002080B500AF60
:10044C0000F020F805F056FE00F092F800F0C6F827
:10045C00084B1B6801229A40074B1A61074B1B780B
:10046C00002BFBD0054B00221A700548FFF7B8FE95
:10047C00F4E700BF0000002000080140000200204B
:10048C00C001002080B400AF374B1B68364A43F4E0
:10049C008033136000BF344B1B6803F40033002B14
:1004AC00F9D0324B1B68314A43F0100313602F4BC9
:1004BC001B682E4A23F0070313602C4B1B682B4A36
:1004CC0043F004031360284B274A5B685360264BA8
:1004DC005B68254A43F480635360234B224A5B6874
:1004EC005360214B5B68204A23F4803353601E4BCE
:1004FC005B681D4A43F4803353601B4B5B681A4A9C
:10050C0023F470135360184B5B68174A43F4E013E1
:10051C005360154B5B68144A23F480035360124BF1
:10052C001B68114A43F08073136000BF0E4B1B68AD
:10053C0003F00073002BF9D00B4B5B680A4A23F0D5
:10054C0003035360084B5B68074A43F00203536094
:10055C0000BF054B5B6803F00C03082BF9D100BFFF
:10056C0000BFBD4680BC7047001002400020024016
:10057C0080B400AF164B9B69154A43F0040393619A
:10058C00144B1B68134A03F00F031360114B5B6889
:10059C00104A23F47F6323F00F0353600D4B1A684A
:1005AC000C490D4B13430B600A4B5B68094A43F42F
:1005BC00087343F002035360064BDB68054A23F4CF
:1005CC00FF6323F00603D36000BFBD4680BC7047B9
:1005DC0000100240000801402022222280B500AF0A
:1005EC00164BDB69154A43F00103D3614FF080438E
:1005FC0000221A604FF0804341F61F429A624FF07E
:10060C00804340F2E732DA624FF08043DB684FF010
:10061C00804243F00103D3604FF080431B684FF0DE
:10062C00804243F00103136002211C20FFF7AEFD52
:10063C001C20FFF78FFD00BF80BD00BF00100240E3
:10064C0080B400AF72B600BF00BFFDE780B400AF4E
:10065C0000BFFDE780B400AF00BFFDE780B400AF82
:10066C0000BFFDE780B400AF00BFFDE780B400AF72
:10067C0000BFFDE780B400AF00BFBD4680BC704733
:10068C0080B400AF00BFBD4680BC704780B400AFE3
:10069C0000BFBD4680BC704780B500AF00F038F895
:1006AC0000BF80BD80B500AF024800F00FFA00BF5C
:1006BC0080BD00BFFC0E002080B400AF00BFBD4663
:1006CC0080BC7047FFF7F8FF0B480C490C4A00231D
:1006DC0002E0D458C4500433C4188C42F9D3094AEC
:1006EC00094C002301E013600432A242FBD306F054
:1006FC0099F9FFF7A3FE704700000020A401002029
:10070C00186B0008A4010020F4130020FEE7000081
:10071C0080B400AF054B1B781A46054B1B6813447D
:10072C00034A136000BFBD4680BC704730000020F8
:10073C003002002080B400AF044BDB681B0A03F0CE
:10074C0007031846BD4680BC704700BF00ED00E0B3
:10075C0080B483B000AF0346FB7197F90730002BD0
:10076C000BDBFB7903F01F02064997F907305B0995
:10077C00012000FA02F241F8232000BF0C37BD46DD
:10078C0080BC704700E100E080B483B000AF03464A
:10079C003960FB7197F90730002B0ADB3B68DAB242
:1007AC000C4997F907301201D2B20B4483F800239D
:1007BC000AE03B68DAB20849FB7903F00F03043B0B
:1007CC001201D2B20B441A7600BF0C37BD4680BC66
:1007DC00704700BF00E100E000ED00E080B489B09C
:1007EC0000AFF860B9607A60FB6803F00703FB6147
:1007FC00FB69C3F10703042B28BF0423BB61FB690E
:10080C000433062B02D9FB69033B00E000237B6118
:10081C004FF0FF32BB6902FA03F3DA43BB681A40AC
:10082C007B699A404FF0FF317B6901FA03F3D9439E
:10083C007B680B40134318462437BD4680BC704779
:10084C0080B586B000AF0346B9607A60FB730023B5
:10085C007B61FFF76FFF78617A68B9687869FFF799
:10086C00BDFF024697F90F3011461846FFF78CFF73
:10087C0000BF1837BD4680BD80B582B000AF0346BF
:10088C00FB7197F907301846FFF762FF00BF083776
:10089C00BD4680BD80B584B000AF78607B68002B0E
:1008AC0001D10123E8E07B6893F89132DBB2002B95
:1008BC0006D17B68002283F89022786805F000FE50
:1008CC007B68032283F891227B6800225A717B6833
:1008DC001B68184601F061FD7B6818687B6804335F
:1008EC000ECB01F037FD0346002B05D07B680222AE
:1008FC0083F891220123BFE07B681B680021184616
:10090C0001F065FD0346002B05D07B68022283F8BD
:10091C0091220123B0E00023FB733EE0FA7B79685F
:10092C0013469B001344DB000B44113301221A7055
:10093C00FA7B796813469B001344DB000B4410339D
:10094C00FA7B1A70FA7B796813469B001344DB0020
:10095C000B44133300221A70FA7B796813469B0000
:10096C001344DB000B44203300221A60FA7B7968B5
:10097C0013469B001344DB000B44243300221A6003
:10098C00FB7B79685A1C13469B001344DB000B4419
:10099C0000221A60FB7B0133FB737B681B79FA7BAB
:1009AC009A42BBD30023FB7344E0FA7B796813466D
:1009BC009B001344DB000B4403F2511300221A700A
:1009CC00FA7B796813469B001344DB000B4403F558
:1009DC00A873FA7B1A70FA7B796813469B00134450
:1009EC00DB000B4403F2531300221A70FA7B796874
:1009FC0013469B001344DB000B4403F5B073002239
:100A0C001A60FA7B796813469B001344DB000B4495
:100A1C0003F5B27300221A60FA7B796813469B00C7
:100A2C001344DB000B4403F5B47300221A60FB7B08
:100A3C000133FB737B681B79FA7B9A42B5D37B68D5
:100A4C0018687B6804330ECB01F0CDFC0346002BF9
:100A5C0005D07B68022283F8912201230CE07B688D
:100A6C0000225A737B68012283F891227B681B68F1
:100A7C00184603F04CFF002318461037BD4680BDC6
:100A8C0080B582B000AF78607B6893F89032012B10
:100A9C0001D1022316E07B68012283F890227B6847
:100AAC001B68184601F063FC0121786805F07BFF98
:100ABC007B681B68184603F020FF7B68002283F8D4
:100ACC009022002318460837BD4680BD80B588B0FB
:100ADC0000AF78607B681B68184603F022FFB86192
:100AEC00BB6903F40043002B03D0786800F01AFBB9
:100AFC0019E1BB6903F48063002B13D07B681B687E
:100B0C00B3F844309AB27B681B6822F4806292B2CC
:100B1C00A3F84420786805F04EFD0021786800F0B9
:100B2C0005F900E1BB6903F48043002B0CD07B6812
:100B3C001B68B3F844309AB27B681B6822F480427D
:100B4C0092B2A3F84420EEE0BB6903F40053002BEF
:100B5C000CD07B681B68B3F844309AB27B681B6876
:100B6C0022F4005292B2A3F84420DCE0BB6903F4F7
:100B7C008053002B27D07B681B68B3F840309AB2A7
:100B8C007B681B6822F0040292B2A3F840207B68B9
:100B9C001B68B3F840309AB27B681B6822F00802DD
:100BAC0092B2A3F84020786805F03EFD7B681B6884
:100BBC00B3F844309AB27B681B6822F4805292B22C
:100BCC00A3F84420AFE0BB6903F40063002B00F0F2
:100BDC0083800023FB7710E07B681B681A46FB7F41
:100BEC009B001A44FB7F128892B25B0020333B447B
:100BFC0023F8182CFB7F0133FB77FB7F072BEBD9FA
:100C0C007B681B68B3F840309AB27B681B6842F073
:100C1C00010292B2A3F840207B681B68B3F8403005
:100C2C009AB27B681B6822F0010292B2A3F84020B2
:100C3C0000BF7B681B68B3F844309BB203F480633D
:100C4C00002BF6D07B681B68B3F844309AB27B68F3
:100C5C001B6822F4806292B2A3F844200023FB7735
:100C6C000FE0FB7F7A6812681146FA7F92000A4403
:100C7C005B0020333B4433F8183C1380FB7F01337B
:100C8C00FB77FB7F072BECD97B681B68B3F84030F4
:100C9C009AB27B681B6842F0080292B2A3F840201B
:100CAC007B681B68B3F844309AB27B681B6822F4EB
:100CBC00006292B2A3F844207B681B68B3F8403002
:100CCC009AB27B681B6842F0040292B2A3F84020EF
:100CDC00786805F08FFC26E0BB6903F40073002BE9
:100CEC000FD07B681B68B3F844309AB27B681B68E2
:100CFC0022F4007292B2A3F84420786805F04DFCFF
:100D0C0011E0BB6903F48073002B0CD07B681B686B
:100D1C00B3F844309AB27B681B6822F4807292B2AA
:100D2C00A3F8442000BF2037BD4680BD80B582B0FB
:100D3C0000AF78600B46FB707B6893F89032012B08
:100D4C0001D1022312E07B68012283F890227B6898
:100D5C00FA785A737B681B68FA781146184603F0C8
:100D6C00B9FD7B68002283F89022002318460837CF
:100D7C00BD4680BD80B584B000AF78600846114692
:100D8C001A460346FB700B463B801346BB70002390
:100D9C00FB7297F90330002B0EDAFB7803F0070295
:100DAC0013469B001344DB0010337A681344FB603A
:100DBC00FB6801225A700EE0FB7803F00702134621
:100DCC009B001344DB0003F5A8737A681344FB60A3
:100DDC00FB6800225A70FB7803F00703DAB2FB6859
:100DEC001A703A88FB681A61FB68BA78DA70BB78BB
:100DFC00022B02D1FB6800221A717B6893F89032A7
:100E0C00012B01D102230EE07B68012283F8902292
:100E1C007B681B68F968184601F002FB7B680022AE
:100E2C0083F89022FB7A18461037BD4680BD80B5FA
:100E3C0084B000AF78600B46FB7097F90330002B41
:100E4C000EDAFB7803F0070213469B001344DB0019
:100E5C0010337A681344FB60FB6801225A700EE071
:100E6C00FB7803F0070213469B001344DB0003F5E9
:100E7C00A8737A681344FB60FB6800225A70FB78F5
:100E8C0003F00703DAB2FB681A707B6893F89032B0
:100E9C00012B01D102230EE07B68012283F8902202
:100EAC007B681B68F968184601F07AFE7B680022A3
:100EBC0083F89022002318461037BD4680BD80B5BC
:100ECC0086B000AFF8607A603B600B46FB72FB7A31
:100EDC0003F0070213469B001344DB0003F5A873D1
:100EEC00FA6813447B617B697A685A617B693A685A
:100EFC009A617B690022DA617B6900225A70FB7A65
:100F0C0003F00703DAB27B691A70FB681B68796916
:100F1C00184602F031F8002318461837BD4680BD3C
:100F2C0080B483B000AF78600B46FB70FB7803F0A5
:100F3C000702796813469B001344DB000B4403F54E
:100F4C00B6731B6818460C37BD4680BC704780B51D
:100F5C0086B000AFF8607A603B600B46FB72FB7AA0
:100F6C0003F0070213469B001344DB001033FA68AE
:100F7C0013447B617B697A685A617B693A689A6130
:100F8C007B69012283F824207B693A681A627B69A9
:100F9C000022DA617B6901225A70FB7A03F00703A5
:100FAC00DAB27B691A70FB681B687969184601F024
:100FBC00E3FF002318461837BD4680BD80B584B0CA
:100FCC0000AF78600B46FB70FB7803F007037A6880
:100FDC001279934201D901234CE097F90330002B8D
:100FEC000EDAFB7803F0070213469B001344DB0078
:100FFC0010337A681344FB60FB6801225A700CE0D2
:10100C00FA7813469B001344DB0003F5A8737A6847
:10101C001344FB60FB6800225A70FB6801229A7033
:10102C00FB7803F00703DAB2FB681A707B6893F85D
:10103C009032012B01D102231CE07B68012283F842
:10104C0090227B681B68F968184603F046FBFB7816
:10105C0003F00703002B08D17B681A687B6803F543
:10106C0026731946104603F06BFC7B68002283F84C
:10107C009022002318461037BD4680BD80B584B041
:10108C0000AF78600B46FB70FB7803F00F037A68B7
:10109C001279934201D9012340E097F90330002BD8
:1010AC000EDAFB7803F0070213469B001344DB00B7
:1010BC0010337A681344FB60FB6801225A700EE00F
:1010CC00FB7803F0070213469B001344DB0003F587
:1010DC00A8737A681344FB60FB6800225A70FB68A3
:1010EC0000229A70FB7803F00703DAB2FB681A70DF
:1010FC007B6893F89032012B01D102230EE07B68C0
:10110C00012283F890227B681B68F968184603F06B
:10111C0034FB7B68002283F890220023184610379A
:10112C00BD4680BD80B596B000AF7860BBE37B68F0
:10113C001B68B3F84430A7F84E30B7F84E30DBB22A
:10114C0003F00F0387F84D3097F84D30002B40F02B
:10115C007581B7F84E3003F01003002B4ED17B682D
:10116C001B681B889BB223F4E14323F07003FB81C3
:10117C007B681A68FB896FEA43436FEA53439BB25F
:10118C0013807B6810337B657B681B68B3F8503029
:10119C009BB21A467B6D1B78DB00134402335B0059
:1011AC007A681268134403F580631B88C3F3090241
:1011BC007B6DDA617B6D5A697B6DDB691A447B6DE3
:1011CC005A610021786805F0CEF97B685B7BDBB255
:1011DC00002B00F068837B6D9B69002B40F06383D0
:1011EC007B685B7BDBB263F07F03DAB27B681B68E6
:1011FC00A3F84C207B6800225A7354E37B6803F5F8
:10120C00A8737B657B681B681B88A7F84A30B7F806
:10121C004A3003F40063002B34D07B681B68B3F8AE
:10122C0050309BB21A467B6D1B78DB00134406339F
:10123C005B007A681268134403F580631B88C3F360
:10124C0009027B6DDA617B6818687B6803F526718F
:10125C007B6DDA887B6DDB699BB203F0C1FB7B682D
:10126C001B681B889AB240F68F7313403B827B68D5
:10127C001B683A8A42F0800292B21A80786805F0B4
:10128C0045F910E3B7F94A30002B80F20C837B68E8
:10129C001B681B889AB240F68F731340FB837B68E4
:1012AC001B68FA8B42F0800292B21A807B681B6832
:1012BC00B3F850309BB21A467B6D1B78DB0013449D
:1012CC0006335B007A681268134403F580631B884D
:1012DC00C3F309027B6DDA617B6DDB69002B19D0DE
:1012EC007B6D5B69002B15D07B6818687B6D596929
:1012FC007B6DDA887B6DDB699BB203F071FB7B6DD8
:10130C005A697B6DDB691A447B6D5A6100217868E0
:10131C0005F00EF97B681B681B88A7F84A30B7F8F4
:10132C004A3003F40063002B40F0BD82B7F84A301A
:10133C0003F44053B3F5405F00F0B5827B681B6843
:10134C00BB617B681B68B3F850309BB21A46BB6913
:10135C001344BB61BB6903F20C437B617B691B8843
:10136C009BB2C3F309039AB27B691A807B6D1B692C
:10137C003E2B1DD97B6D1B695B097B647B6D1B69E7
:10138C0003F01F03002B02D17B6C013B7B647B6958
:10139C001B889AB27B6C9BB29B029BB213439BB291
:1013AC006FEA43436FEA53439AB27B691A8026E093
:1013BC007B6D1B69002B0AD17B691B889BB26FEA82
:1013CC0043436FEA53439AB27B691A8017E07B6DF3
:1013DC001B695B087B647B6D1B6903F00103002BAD
:1013EC0002D07B6C01337B647B691B889AB27B6C6B
:1013FC009BB29B029BB213439AB27B691A807B68A7
:10140C001B681B889BB223F4804323F070037B8200
:10141C007B8A83F480537B827B8A83F400537B82A8
:10142C007B681A687B8A43F07F4343F47F0343F461
:10143C00004343F080039BB2138034E27B681B684B
:10144C001A4697F84D309B0013441B88A7F84A3076
:10145C00B7F94A30002B80F2FC807B681B681A4677
:10146C0097F84D309B0013441B889AB240F68F734B
:10147C001340A7F848307B681B681A4697F84D3024
:10148C009B001344B7F8482042F0800292B21A80B5
:10149C0097F84D2013469B001344DB0003F5A8730B
:1014AC007A6813447B657B6D1B7B002B25D17B6895
:1014BC001B68B3F850309BB21A467B6D1B78DB006F
:1014CC00134406335B007A681268134403F5806397
:1014DC001B88C3F30903A7F85030B7F85030002B22
:1014EC0000F092807B6818687B6D59697B6DDA8897
:1014FC00B7F8503003F074FA86E07B6DDB78022B82
:10150C000AD1B7F84A301A46796D786800F0D9F9E3
:10151C000346A7F8503077E07B681B681A467B6D52
:10152C001B789B0013441B889BB223F4E04323F0ED
:10153C007003A7F852307B681B681A467B6D1B78CA
:10154C009B001A44B7F8523043F07F4343F47F03B7
:10155C0043F4004343F0C0039BB213807B681B68C9
:10156C001A467B6D1B789B0013441B889BB203F4BB
:10157C008043002B24D07B681B68B3F850309BB29F
:10158C001A467B6D1B78DB00134402335B007A68D0
:10159C001268134403F580631B88C3F30903A7F88F
:1015AC005030B7F85030002B2ED07B6818687B6D0C
:1015BC0059697B6D1A89B7F8503003F011FA23E0A2
:1015CC007B681B68B3F850309BB21A467B6D1B7856
:1015DC00DB00134406335B007A681268134403F58E
:1015EC0080631B88C3F30903A7F85030B7F8503059
:1015FC00002B09D07B6818687B6D59697B6D5A8903
:10160C00B7F8503003F0ECF97B6DDA69B7F850306D
:10161C001A447B6DDA617B6D5A69B7F850301A4405
:10162C007B6D5A617B6D9B69002B05D0B7F8502000
:10163C007B6D1B699A4206D27B6D1B7819467868C4
:10164C0004F076FF05E07B681B68796D184601F0A5
:10165C0093FCB7F84A3003F08003002B00F0238191
:10166C0097F84D2013469B001344DB0010337A6827
:10167C0013447B657B681B681A4697F84D309B00BA
:10168C0013441B889BB223F4E14323F07003A7F8A7
:10169C0042307B681B681A4697F84D309B001A4401
:1016AC00B7F842306FEA43436FEA53439BB213805F
:1016BC007B6DDB78012B40F0A2807B6D00229A6160
:1016CC007B6D1B7B002B00F09380B7F84A3003F046
:1016DC004003002B46D07B6D5B78002B26D17B68BA
:1016EC001B687B627B681B68B3F850309BB21A4650
:1016FC007B6A13447B627B6D1B781A017B6A1344F3
:10170C0003F204433B623B6A1B889BB2C3F309039D
:10171C009AB23B6A1A803B6A1B889BB26FEA4343BE
:10172C006FEA53439AB23B6A1A8061E07B6D5B7837
:10173C00012B5DD17B681B68FB627B681B68B3F86F
:10174C0050309BB21A46FB6A1344FB627B6D1B78CC
:10175C001A01FB6A134403F20443BB62BB6A002206
:10176C001A8045E07B681B68FB637B6D5B78002B04
:10177C0026D17B681B687B637B681B68B3F8503091
:10178C009BB21A467B6B13447B637B6D1B781A01EF
:10179C007B6B134403F20C433B633B6B1B889BB288
:1017AC00C3F309039AB23B6B1A803B6B1B889BB249
:1017BC006FEA43436FEA53439AB23B6B1A8017E0CC
:1017CC007B6D5B78012B13D17B681B68B3F85030B1
:1017DC009BB21A46FB6B1344FB637B6D1B781A019F
:1017EC00FB6B134403F20C43BB63BB6B00221A80EC
:1017FC007B6D1B781946786804F0B5FE53E0B7F89A
:10180C004A3003F48073002B46D17B681B68B3F815
:10181C0050309BB21A467B6D1B78DB0013440233AD
:10182C005B007A681268134403F580631B88C3F36A
:10183C000903A7F840307B6D9A69B7F840309A429B
:10184C0007D97B6D9A69B7F84030D21A7B6D9A61D3
:10185C0002E07B6D00229A617B6D9B69002B06D1A7
:10186C007B6D1B781946786804F07DFE1BE07B6D60
:10187C005A69B7F840301A447B6D5A617B6DDA694E
:10188C00B7F840301A447B6DDA617B681B68796D60
:10189C00184601F071FB06E0B7F84A301A46796D2C
:1018AC00786800F01BF97B681B68B3F844309BB276
:1018BC001BB2002BFFF63BAC002318465837BD4635
:1018CC0080BD80B588B000AFF860B9601346FB806E
:1018DC00FB8803F48043002B7ED0FB681B68B3F8B5
:1018EC0050309BB21A46BB681B78DB0013440233A2
:1018FC005B00FA681268134403F580631B88C3F31A
:10190C0009037B83BB689A697B8B9A4206D3BB68BD
:10191C009A697B8BD21ABB689A6102E0BB68002281
:10192C009A61BB689B69002B23D1FB681B681A4624
:10193C00BB681B789B0013441B889BB223F4804329
:10194C0023F070033B833B8B83F400533B83FB6896
:10195C001B681A46BB681B789B001A443B8B43F0F0
:10196C007F4343F47F0343F4004343F080039BB273
:10197C001380FB8803F04003002B1FD0FB681B680F
:10198C001A46BB681B789B0013441B889BB223F43C
:10199C00E04323F07003FB82FB681B681A46BB68AC
:1019AC001B789B001A44FB8A43F07F4343F47F036C
:1019BC0043F4004343F0C0039BB213807B8B002B9A
:1019CC0000F08780FB681868BB685969BB681A8986
:1019DC007B8B03F005F87CE0FB681B68B3F8503098
:1019EC009BB21A46BB681B78DB00134406335B00C2
:1019FC00FA681268134403F580631B88C3F3090368
:101A0C007B83BB689A697B8B9A4206D3BB689A69C5
:101A1C007B8BD21ABB689A6102E0BB6800229A6188
:101A2C00BB689B69002B23D1FB681B681A46BB68FB
:101A3C001B789B0013441B889BB223F4804323F038
:101A4C007003FB83FB8B83F40053FB83FB681B68E5
:101A5C001A46BB681B789B001A44FB8B43F07F43F0
:101A6C0043F47F0343F4004343F080039BB21380A1
:101A7C00FB8803F04003002B1FD1FB681B681A4640
:101A8C00BB681B789B0013441B889BB223F4E04378
:101A9C0023F07003BB83FB681B681A46BB681B787A
:101AAC009B001A44BB8B43F07F4343F47F0343F406
:101ABC00004343F0C0039BB213807B8B002B08D0F8
:101ACC00FB681868BB685969BB685A897B8B02F044
:101ADC0087FF7B8B18462037BD4680BD80B5A4B0F0
:101AEC0000AFF860B9601346FB80FB8803F040033D
:101AFC00002B00F0DD81FB681B68B3F850309BB203
:101B0C001A46BB681B78DB00134402335B00FA688F
:101B1C001268134403F580631B88C3F30903A7F809
:101B2C008630BB689A69B7F886309A4207D9BB6889
:101B3C009A69B7F88630D21ABB689A6102E0BB6822
:101B4C0000229A61BB689B69002B40F0B980BB688E
:101B5C005B78002B26D1FB681B68FB62FB681B685B
:101B6C00B3F850309BB21A46FB6A1344FB62BB6855
:101B7C001B781A01FB6A134403F20443BB62BB6A71
:101B8C001B889BB2C3F309039AB2BB6A1A80BB6A67
:101B9C001B889BB26FEA43436FEA53439AB2BB6A0A
:101BAC001A801AE0BB685B78012B16D1FB681B68A6
:101BBC007B63FB681B68B3F850309BB21A467B6B97
:101BCC0013447B63BB681B781A017B6B134403F2D1
:101BDC0004433B633B6B00221A80FB681B687B62EF
:101BEC00BB685B78002B26D1FB681B68FB61FB682C
:101BFC001B68B3F850309BB21A46FB691344FB6167
:101C0C00BB681B781A01FB69134403F20C43BB61DC
:101C1C00BB691B889BB2C3F309039AB2BB691A80D8
:101C2C00BB691B889BB26FEA43436FEA53439AB27A
:101C3C00BB691A8017E0BB685B78012B13D1FB687A
:101C4C001B68B3F850309BB21A467B6A13447B6214
:101C5C00BB681B781A017B6A134403F20C433B628A
:101C6C003B6A00221A80BB681B781946F86804F09E
:101C7C007AFCFB8803F48043002B00F0FC82FB68A9
:101C8C001B681A46BB681B789B0013441B889BB2CD
:101C9C0023F4E04323F07003FB82FB681B681A46B5
:101CAC00BB681B789B001A44FB8A43F07F4343F4C8
:101CBC007F0343F4404343F080039BB21380DAE28A
:101CCC00FB8803F48043002B21D0FB681B681A4669
:101CDC00BB681B789B0013441B889BB223F4E04326
:101CEC0023F07003A7F88A30FB681B681A46BB68A0
:101CFC001B789B001A44B7F88A3043F07F4343F4B7
:101D0C007F0343F4404343F080039BB21380BB68D2
:101D1C0093F82430012B40F0AE82BB685A69B7F8B7
:101D2C0086301A44BB685A61BB68DA69B7F88630EA
:101D3C001A44BB68DA61BB681A6ABB681B699A42B1
:101D4C000BD3BB681B69C7F88C30BB681A6AD7F811
:101D5C008C30D21ABB681A6217E0BB681B6A002B66
:101D6C0008D1B7F88630C7F88C30BB68002283F8EE
:101D7C0024200AE0BB68002283F82420BB681B6A7D
:101D8C00C7F88C30BB6800221A62BB685B78002BEA
:101D9C0065D1FB681B68FB63FB681B68B3F85030AC
:101DAC009BB21A46FB6B1344FB63BB681B781A018E
:101DBC00FB6B134403F20443BB63BB6B1B889BB2EA
:101DCC00C3F309039AB2BB6B1A80D7F88C303E2B45
:101DDC001DD9D7F88C305B09BB64D7F88C3003F075
:101DEC001F03002B02D1BB6C013BBB64BB6B1B887C
:101DFC009AB2BB6C9BB29B029BB213439BB26FEA31
:101E0C0043436FEA53439AB2BB6B1A8044E0D7F852
:101E1C008C30002B0AD1BB6B1B889BB26FEA4343FF
:101E2C006FEA53439AB2BB6B1A8035E0D7F88C300B
:101E3C005B08BB64D7F88C3003F00103002B02D095
:101E4C00BB6C0133BB64BB6B1B889AB2BB6C9BB283
:101E5C009B029BB213439AB2BB6B1A801CE0BB680B
:101E6C005B78012B18D1FB681B687B64FB681B68D3
:101E7C00B3F850309BB21A467B6C13447B64BB683E
:101E8C001B781A017B6C134403F204433B64D7F8B0
:101E9C008C309AB23B6C1A80FB681868BB68596925
:101EAC00BB681A89D7F88C309BB202F054FDE2E182
:101EBC00FB681B68B3F850309BB21A46BB681B78A2
:101ECC00DB00134406335B00FA681268134403F515
:101EDC0080631B88C3F30903A7F88630BB689A6933
:101EEC00B7F886309A4207D3BB689A69B7F8863040
:101EFC00D21ABB689A6102E0BB6800229A61BB6887
:101F0C009B69002B40F0C080BB685B78002B26D10E
:101F1C00FB681B68FB67FB681B68B3F850309BB20F
:101F2C001A46FB6F1344FB67BB681B781A01FB6FE7
:101F3C00134403F20443BB67BB6F1B889BB2C3F310
:101F4C0009039AB2BB6F1A80BB6F1B889BB26FEAF6
:101F5C0043436FEA53439AB2BB6F1A801AE0BB68D3
:101F6C005B78012B16D1FB681B687B66FB681B68D2
:101F7C00B3F850309BB21A467B6E13447B66BB6839
:101F8C001B781A017B6E134403F204433B663B6ED1
:101F9C0000221A80FB681B687B67BB685B78002B90
:101FAC002BD1FB681B68FB66FB681B68B3F85030D1
:101FBC009BB21A46FB6E1344FB66BB681B781A0176
:101FCC00FB6E134403F20C43C7F88030D7F8803013
:101FDC001B889BB2C3F309039AB2D7F880301A80DE
:101FEC00D7F880301B889BB26FEA43436FEA5343A8
:101FFC009AB2D7F880301A8017E0BB685B78012B57
:10200C0013D1FB681B68B3F850309BB21A467B6F38
:10201C0013447B67BB681B781A017B6F134403F274
:10202C000C433B673B6F00221A80BB681B78194638
:10203C00F86804F098FAFB8803F48043002B40F016
:10204C001A81FB681B681A46BB681B789B001344FB
:10205C001B889BB223F4E04323F07003A7F888306D
:10206C00FB681B681A46BB681B789B001A44B7F8C0
:10207C00883043F07F4343F47F0343F4404343F001
:10208C0080039BB21380F6E0FB8803F48043002BA3
:10209C0021D1FB681B681A46BB681B789B00134454
:1020AC001B889BB223F4E04323F07003A7F84E3057
:1020BC00FB681B681A46BB681B789B001A44B7F870
:1020CC004E3043F07F4343F47F0343F4404343F0EB
:1020DC0080039BB21380BB6893F82430012B40F033
:1020EC00CA80BB685A69B7F886301A44BB685A6113
:1020FC00BB68DA69B7F886301A44BB68DA61BB682A
:10210C001A6ABB681B699A420BD3BB681B69C7F878
:10211C008C30BB681A6AD7F88C30D21ABB681A623A
:10212C0017E0BB681B6A002B08D1B7F88630C7F8DC
:10213C008C30BB68002283F824200AE0BB681B6A41
:10214C00C7F88C30BB6800221A62BB68002283F887
:10215C002420FB681B687B65BB685B78002B65D112
:10216C00FB681B68FB65FB681B68B3F850309BB2BF
:10217C001A46FB6D1344FB65BB681B781A01FB6D9B
:10218C00134403F20C43BB65BB6D1B889BB2C3F3BA
:10219C0009039AB2BB6D1A80D7F88C303E2B1DD92F
:1021AC00D7F88C305B09BB66D7F88C3003F01F0373
:1021BC00002B02D1BB6E013BBB66BB6D1B889AB278
:1021CC00BB6E9BB29B029BB213439BB26FEA434321
:1021DC006FEA53439AB2BB6D1A8041E0D7F88C304A
:1021EC00002B0AD1BB6D1B889BB26FEA43436FEA8D
:1021FC0053439AB2BB6D1A8032E0D7F88C305B082F
:10220C00BB66D7F88C3003F00103002B02D0BB6EF9
:10221C000133BB66BB6D1B889AB2BB6E9BB29B0233
:10222C009BB213439AB2BB6D1A8019E0BB685B7802
:10223C00012B15D1FB681B68B3F850309BB21A46C2
:10224C007B6D13447B65BB681B781A017B6D134453
:10225C0003F20C433B65D7F88C309AB23B6D1A8075
:10226C00FB681868BB685969BB685A89D7F88C3009
:10227C009BB202F070FBFB681B681A46BB681B78AC
:10228C009B0013441B889BB223F4E04323F04003D0
:10229C00BB82BB8A83F01003BB82BB8A83F0200312
:1022AC00BB82FB681B681A46BB681B789B001A44F0
:1022BC00BB8A43F07F4343F47F0343F4004343F072
:1022CC0080039BB21380002318469037BD4680BD17
:1022DC0080B487B000AFF8607B600B467B811346FF
:1022EC003B817B8903F080039BB2002B0BD07B8955
:1022FC0003F0070213469B001344DB001033FA680B
:10230C0013447B6109E07A8913469B001344DB007C
:10231C0003F5A873FA6813447B613B89002B07D142
:10232C007B6900221A737B689AB27B69DA800BE0B6
:10233C007B6901221A737B689AB27B691A817B686C
:10234C001B0C9AB27B695A81002318461C37BD4678
:10235C0080BC704780B485B000AFF860384680E828
:10236C000E00002318461437BD4680BC704780B45D
:10237C0085B000AF78607B680022A3F844204FF44E
:10238C003F43FB60FB689AB27B68A3F840200023B4
:10239C0018461437BD4680BC704780B485B000AF7A
:1023AC0078604FF43F43FB607B68B3F840309AB2DF
:1023BC00FB689BB2DB439BB213409AB27B68A3F8D9
:1023CC004020002318461437BD4680BC704780B4AB
:1023DC0083B000AF78600B46FB70002318460C37B7
:1023EC00BD4680BC704780B485B000AFF8603846FD
:1023FC0080E80E00FB680122A3F84020FB68002255
:10240C00A3F84020FB680022A3F84420FB680022BC
:10241C00A3F85020002318461437BD4680BC7047E3
:10242C0080B49DB000AF78603960002387F86F30BE
:10243C007A683B681B789B0013441B889BB223F47F
:10244C00EC4323F07003A7F86C303B68DB78032B6C
:10245C001FD801A252F823F075240008912400081B
:10246C00A724000883240008B7F86C3043F40073E9
:10247C00A7F86C3012E0B7F86C3043F4C063A7F8DF
:10248C006C300BE0B7F86C3043F48063A7F86C3019
:10249C0004E0012387F86F3000E000BF7A683B68E6
:1024AC001B789B001A44B7F86C3043F07F4343F41D
:1024BC007F0343F4004343F080039BB213807A689C
:1024CC003B681B789B0013441B889BB223F4E043AE
:1024DC0023F070039BB23A6812781343A7F8663066
:1024EC007A683B681B789B001A44B7F8663043F057
:1024FC007F4343F47F0343F4004343F080039BB2D8
:10250C0013803B681B7B002B40F078813B685B7829
:10251C00002B00F084807B68BB617B68B3F8503083
:10252C009BB21A46BB691344BB613B681B781A010A
:10253C00BB69134403F580637B613B68DB885B08F4
:10254C009BB25B009AB27B691A807A683B681B78F5
:10255C009B0013441B887B827B8A03F04003002B77
:10256C001BD07A683B681B789B0013441B889BB27A
:10257C0023F4E04323F070033B827A683B681B78BA
:10258C009B001A443B8A43F07F4343F47F0343F49C
:10259C00004343F0C0039BB213803B68DB78012BF4
:1025AC0020D07A683B681B789B0013441B889BB235
:1025BC0023F4E04323F04003BB81BB8983F0200369
:1025CC00BB817A683B681B789B001A44BB8943F03B
:1025DC007F4343F47F0343F4004343F080039BB2F7
:1025EC001380D5E27A683B681B789B0013441B88E8
:1025FC009BB223F4E04323F04003FB817A683B68F1
:10260C001B789B001A44FB8943F07F4343F47F0300
:10261C0043F4004343F080039BB21380B8E27B6821
:10262C003B637B68B3F850309BB21A463B6B134448
:10263C003B633B681B781A013B6B134403F58163C6
:10264C00FB623B68DB885B089BB25B009AB2FB6A5F
:10265C001A807B68BB627B68B3F850309BB21A4619
:10266C00BB6A1344BB623B681B781A01BB6A1344F8
:10267C0003F20C437B627B6A1B889BB2C3F3090396
:10268C009AB27B6A1A803B681B693E2B1DD93B684A
:10269C001B695B09BB663B681B6903F01F03002BBE
:1026AC0002D1BB6E013BBB667B6A1B889AB2BB6EC8
:1026BC009BB29B029BB213439BB26FEA43436FEAFC
:1026CC0053439AB27B6A1A8026E03B681B69002B45
:1026DC000AD17B6A1B889BB26FEA43436FEA534370
:1026EC009AB27B6A1A8017E03B681B695B08BB6671
:1026FC003B681B6903F00103002B02D0BB6E013356
:10270C00BB667B6A1B889AB2BB6E9BB29B029BB268
:10271C0013439AB27B6A1A807A683B681B789B00D9
:10272C0013441B887B847B8C03F48043002B1BD0CD
:10273C007A683B681B789B0013441B889BB223F47C
:10274C00E04323F070033B847A683B681B789B0062
:10275C001A443B8C43F07F4343F47F0343F44043E0
:10276C0043F080039BB213803B681B78002B24D171
:10277C007A683B681B789B0013441B889BB223F43C
:10278C00804323F07003BB83BB8B83F48053BB83E8
:10279C00BB8B83F40053BB837A683B681B789B002C
:1027AC001A44BB8B43F07F4343F47F0343F4004351
:1027BC0043F080039BB21380EAE17A683B681B7894
:1027CC009B0013441B889BB223F4804323F07003BB
:1027DC00FB83FB8B83F40053FB837A683B681B7889
:1027EC009B001A44FB8B43F07F4343F47F0343F479
:1027FC00004343F080039BB21380C9E13B68DB7854
:10280C00022B1ED17A683B681B789B0013441B88F3
:10281C009BB223F4E04323F07003A7F862307A688C
:10282C003B681B789B001A44B7F8623043F07F4337
:10283C0043F47F0343F4014343F080039BB21380C2
:10284C001DE07A683B681B789B0013441B889BB285
:10285C0023F4E24323F07003A7F864307A683B68F2
:10286C001B789B001A44B7F8643043F07F4343F461
:10287C007F0343F4004343F080039BB213807B68D7
:10288C00FB657B68B3F850309BB21A46FB6D134462
:10289C00FB653B681B781A01FB6D134403F58063E1
:1028AC00BB653B681B895B089BB25B009AB2BB6D36
:1028BC001A807B687B657B68B3F850309BB21A46F4
:1028CC007B6D13447B653B681B781A017B6D13444D
:1028DC0003F581633B653B685B895B089BB25B00DE
:1028EC009AB23B6D1A803B685B78002B40F093806A
:1028FC007A683B681B789B0013441B88A7F8403010
:10290C00B7F8403003F48043002B1BD07A683B6847
:10291C001B789B0013441B889BB223F4E04323F0E9
:10292C007003FB877A683B681B789B001A44FB8F0B
:10293C0043F07F4343F47F0343F4404343F080036D
:10294C009BB213807A683B681B789B0013441B88EE
:10295C00BB87BB8F03F04003002B1BD07A683B680E
:10296C001B789B0013441B889BB223F4E04323F099
:10297C0070037B877A683B681B789B001A447B8FBB
:10298C0043F07F4343F47F0343F4004343F0C0031D
:10299C009BB213807A683B681B789B0013441B889E
:1029AC009BB223F4804323F070033B873B8F83F46B
:1029BC0080533B873B8F83F400533B877A683B689B
:1029CC001B789B001A443B8F43F07F4343F47F03F7
:1029DC0043F4004343F080039BB213807A683B6856
:1029EC001B789B0013441B889BB223F4E04323F019
:1029FC004003FB867A683B681B789B001A44FB8E6D
:102A0C0043F07F4343F47F0343F4004343F08003DC
:102A1C009BB21380BCE07A683B681B789B00134424
:102A2C001B88A7F84E30B7F84E3003F48043002BC8
:102A3C001DD07A683B681B789B0013441B889BB2A3
:102A4C0023F4E04323F07003A7F84C307A683B681A
:102A5C001B789B001A44B7F84C3043F07F4343F487
:102A6C007F0343F4404343F080039BB213807A68A6
:102A7C003B681B789B0013441B88A7F84A30B7F8B7
:102A8C004A3003F04003002B1DD07A683B681B785A
:102A9C009B0013441B889BB223F4E04323F0700388
:102AAC00A7F848307A683B681B789B001A44B7F843
:102ABC00483043F07F4343F47F0343F4004343F037
:102ACC00C0039BB213803B68DB78012B24D07A685F
:102ADC003B681B789B0013441B889BB223F4E04398
:102AEC0023F04003A7F84430B7F8443083F02003B8
:102AFC00A7F844307A683B681B789B001A44B7F8F7
:102B0C00443043F07F4343F47F0343F4004343F0EA
:102B1C0080039BB213801DE07A683B681B789B0096
:102B2C0013441B889BB223F4E04323F04003A7F823
:102B3C0046307A683B681B789B001A44B7F84630DD
:102B4C0043F07F4343F47F0343F4004343F080039B
:102B5C009BB213807A683B681B789B0013441B88DC
:102B6C009BB223F4804323F07003A7F842307A68B9
:102B7C003B681B789B001A44B7F8423043F07F4304
:102B8C0043F47F0343F4004343F080039BB2138070
:102B9C0097F86F3018467437BD4680BC704700BF3D
:102BAC0080B48DB000AF786039603B681B7B002B24
:102BBC0040F08E803B685B78002B44D07A683B6891
:102BCC001B789B0013441B88BB81BB8903F040031B
:102BDC00002B1BD07A683B681B789B0013441B8826
:102BEC009BB223F4E04323F070037B817A683B684B
:102BFC001B789B001A447B8943F07F4343F47F038B
:102C0C0043F4004343F0C0039BB213807A683B68E3
:102C1C001B789B0013441B889BB223F4E04323F0E6
:102C2C0040033B817A683B681B789B001A443B89C4
:102C3C0043F07F4343F47F0343F4004343F08003AA
:102C4C009BB2138092E17A683B681B789B0013441B
:102C5C001B887B827B8A03F48043002B1BD07A6811
:102C6C003B681B789B0013441B889BB223F4E04306
:102C7C0023F070033B827A683B681B789B001A44F4
:102C8C003B8A43F07F4343F47F0343F4404343F0D8
:102C9C0080039BB213807A683B681B789B001344BB
:102CAC001B889BB223F4804323F07003FB817A686A
:102CBC003B681B789B001A44FB8943F07F4343F429
:102CCC007F0343F4004343F080039BB213804DE138
:102CDC003B685B78002B40F0A5807A683B681B78DA
:102CEC009B0013441B883B843B8C03F48043002BD8
:102CFC001BD07A683B681B789B0013441B889BB2E3
:102D0C0023F4E04323F07003FB837A683B681B7861
:102D1C009B001A44FB8B43F07F4343F47F0343F443
:102D2C00404343F080039BB213807A683B681B7866
:102D3C009B0013441B88BB83BB8B03F04003002B0D
:102D4C001BD07A683B681B789B0013441B889BB292
:102D5C0023F4E04323F070037B837A683B681B7891
:102D6C009B001A447B8B43F07F4343F47F0343F473
:102D7C00004343F0C0039BB213807A683B681B7816
:102D8C009B0013441B889BB223F4E04323F0700395
:102D9C003B837A683B681B789B001A443B8B43F05F
:102DAC007F4343F47F0343F4004343F0C0039BB2DF
:102DBC0013807A683B681B789B0013441B889BB27A
:102DCC0023F4804323F07003FB827A683B681B7802
:102DDC009B001A44FB8A43F07F4343F47F0343F484
:102DEC00004343F080039BB213807A683B681B78E6
:102DFC009B0013441B889BB223F4E04323F0400355
:102E0C00BB827A683B681B789B001A44BB8A43F0F0
:102E1C007F4343F47F0343F4004343F080039BB2AE
:102E2C001380A3E07A683B681B789B0013441B88D3
:102E3C00FB85FB8D03F48043002B1BD07A683B6829
:102E4C001B789B0013441B889BB223F4E04323F0B4
:102E5C007003BB857A683B681B789B001A44BB8D5A
:102E6C0043F07F4343F47F0343F4404343F0800338
:102E7C009BB213807A683B681B789B0013441B88B9
:102E8C007B857B8D03F04003002B1BD07A683B685D
:102E9C001B789B0013441B889BB223F4E04323F064
:102EAC0070033B857A683B681B789B001A443B8D0A
:102EBC0043F07F4343F47F0343F4004343F0C003E8
:102ECC009BB213807A683B681B789B0013441B8869
:102EDC009BB223F4E04323F07003FB847A683B68D5
:102EEC001B789B001A44FB8C43F07F4343F47F0315
:102EFC0043F4404343F080039BB213807A683B68F1
:102F0C001B789B0013441B889BB223F4E04323F0F3
:102F1C004003BB847A683B681B789B001A44BB8CCB
:102F2C0043F07F4343F47F0343F4004343F08003B7
:102F3C009BB213807A683B681B789B0013441B88F8
:102F4C009BB223F4804323F070037B847A683B6844
:102F5C001B789B001A447B8C43F07F4343F47F0324
:102F6C0043F4004343F080039BB2138000231846C4
:102F7C003437BD4680BC704780B5C2B000AF07F592
:102F8C008473A3F58273186007F58473A3F58473B7
:102F9C00196007F58473A3F584731B685B78012BA8
:102FAC0040F0B78607F58473A3F584731B689A69A0
:102FBC0007F58473A3F584731B681B699A4208D9BF
:102FCC0007F58473A3F584731B681B69C7F8043178
:102FDC0007E007F58473A3F584731B689B69C7F836
:102FEC00043107F58473A3F584731B681B7B002BDA
:102FFC003AD107F58473A3F584731B68596907F5F7
:10300C008473A3F584731B68DA88D7F804319BB2F8
:10301C0007F58470A0F58270006801F09CFC07F540
:10302C008473A3F582731B683B6107F58473A3F566
:10303C0082731B68B3F850309BB21A463B69134439
:10304C003B6107F58473A3F584731B681B781A0125
:10305C003B69134403F20443FB60D7F804319AB282
:10306C00FB681A8000F01FBE07F58473A3F5847308
:10307C001B68DB78022B40F0628407F58473A3F5A0
:10308C0084731B681A6A07F58473A3F584731B6831
:10309C001B699A4240F2DF8307F58473A3F58273B0
:1030AC001A6807F58473A3F584731B681B789B005F
:1030BC0013441B889BB223F4E04323F07003A7F85E
:1030CC00563007F58473A3F582731A6807F5847379
:1030DC00A3F584731B681B789B001A44B7F8563011
:1030EC0043F07F4343F47F0343F4014343F08003F5
:1030FC009BB2138007F58473A3F584731B681A6A5B
:10310C00D7F80431D21A07F58473A3F584731B68BE
:10311C001A6207F58473A3F582731A6807F5847332
:10312C00A3F584731B681B789B0013441B889BB20C
:10313C0003F04003002B00F0C78107F58473A3F55F
:10314C0082731B683B6307F58473A3F584731B6858
:10315C005B78002B77D107F58473A3F582731B681A
:10316C00BB6207F58473A3F582731B68B3F8503008
:10317C009BB21A46BB6A1344BB6207F58473A3F572
:10318C0084731B681B781A01BB6A134403F20C434B
:10319C007B627B6A1B889BB2C3F309039AB27B6A7E
:1031AC001A80D7F804313E2B21D9D7F804315B09AA
:1031BC00C7F80031D7F8043103F01F03002B04D1FA
:1031CC00D7F80031013BC7F800317B6A1B889AB2F3
:1031DC00D7F800319BB29B029BB213439BB26FEAB0
:1031EC0043436FEA53439AB27B6A1A8050E0D7F894
:1031FC000431002B0AD17B6A1B889BB26FEA4343D4
:10320C006FEA53439AB27B6A1A8041E0D7F80431D3
:10321C005B08C7F80031D7F8043103F00103002B29
:10322C0004D0D7F800310133C7F800317B6A1B8812
:10323C009AB2D7F800319BB29B029BB213439AB25D
:10324C007B6A1A8024E007F58473A3F584731B68EA
:10325C005B78012B1CD107F58473A3F582731B6873
:10326C00B3F850309BB21A463B6B13443B6307F5E3
:10327C008473A3F584731B681B781A013B6B13448E
:10328C0003F20C43FB62D7F804319AB2FB6A1A8042
:10329C0007F58473A3F584731B685B89A7F87630F4
:1032AC0007F58473A3F584731B685969D7F8043147
:1032BC009BB2B7F8762007F58470A0F58270006891
:1032CC0001F049FB07F58473A3F584731B685A69F5
:1032DC00D7F804311A4407F58473A3F584731B687B
:1032EC005A6107F58473A3F584731B681A6A07F592
:1032FC008473A3F584731B681B699A420FD907F575
:10330C008473A3F584731B681A6AD7F80431D21A34
:10331C0007F58473A3F584731B681A620EE007F536
:10332C008473A3F584731B681B6AC7F8043107F513
:10333C008473A3F584731B6800221A6207F58473E7
:10334C00A3F584731B685B78002B77D107F5847326
:10335C00A3F582731B68BB6107F58473A3F58273B5
:10336C001B68B3F850309BB21A46BB691344BB615F
:10337C0007F58473A3F584731B681B781A01BB696A
:10338C00134403F204437B617B691B889BB2C3F338
:10339C0009039AB27B691A80D7F804313E2B21D9E4
:1033AC00D7F804315B09C7F8FC30D7F8043103F0C7
:1033BC001F03002B04D1D7F8FC30013BC7F8FC30BD
:1033CC007B691B889AB2D7F8FC309BB29B029BB2EC
:1033DC0013439BB26FEA43436FEA53439AB27B6940
:1033EC001A8056E0D7F80431002B0AD17B691B8870
:1033FC009BB26FEA43436FEA53439AB27B691A80DC
:10340C0047E0D7F804315B08C7F8FC30D7F8043133
:10341C0003F00103002B04D0D7F8FC300133C7F8BC
:10342C00FC307B691B889AB2D7F8FC309BB29B02AC
:10343C009BB213439AB27B691A802AE007F5847316
:10344C00A3F584731B685B78012B22D107F5847379
:10345C00A3F582731B683B6207F58473A3F5827333
:10346C001B68B3F850309BB21A463B6A13443B625C
:10347C0007F58473A3F584731B681B781A013B6AE8
:10348C00134403F20443FB61D7F804319AB2FB698D
:10349C001A8007F58473A3F584731B681B89A7F83E
:1034AC00763007F58473A3F584731B685969D7F8D4
:1034BC0004319BB2B7F8762007F58470A0F58270C2
:1034CC00006801F048FAEEE307F58473A3F5847302
:1034DC001B685B78002B77D107F58473A3F5827397
:1034EC001B68BB6407F58473A3F582731B68B3F880
:1034FC0050309BB21A46BB6C1344BB6407F5847303
:10350C00A3F584731B681B781A01BB6C134403F27C
:10351C0004437B647B6C1B889BB2C3F309039AB294
:10352C007B6C1A80D7F804313E2B21D9D7F80431A3
:10353C005B09C7F8F830D7F8043103F01F03002BF0
:10354C0004D1D7F8F830013BC7F8F8307B6C1B88F6
:10355C009AB2D7F8F8309BB29B029BB213439BB242
:10356C006FEA43436FEA53439AB27B6C1A8056E07E
:10357C00D7F80431002B0AD17B6C1B889BB26FEA05
:10358C0043436FEA53439AB27B6C1A8047E0D7F8F7
:10359C0004315B08C7F8F830D7F8043103F00103A5
:1035AC00002B04D0D7F8F8300133C7F8F8307B6C17
:1035BC001B889AB2D7F8F8309BB29B029BB213438C
:1035CC009AB27B6C1A802AE007F58473A3F5847396
:1035DC001B685B78012B22D107F58473A3F58273EA
:1035EC001B683B6507F58473A3F582731B68B3F8FE
:1035FC0050309BB21A463B6D13443B6507F5847300
:10360C00A3F584731B681B781A013B6D134403F2FA
:10361C000443FB64D7F804319AB2FB6C1A8007F5AB
:10362C008473A3F584731B681B89A7F8763007F5A0
:10363C008473A3F584731B685969D7F804319BB262
:10364C00B7F8762007F58470A0F58270006801F059
:10365C0082F907F58473A3F584731B685A69D7F84C
:10366C0004311A4407F58473A3F584731B685A61FB
:10367C0007F58473A3F584731B681A6A07F58473C2
:10368C00A3F584731B681B699A420FD907F58473E1
:10369C00A3F584731B681A6AD7F80431D21A07F59C
:1036AC008473A3F584731B681A620EE007F58473A8
:1036BC00A3F584731B681B6AC7F8043107F5847380
:1036CC00A3F584731B6800221A6207F58473A3F5B3
:1036DC0082731B683B6407F58473A3F584731B68C2
:1036EC005B78002B77D107F58473A3F582731B6885
:1036FC00BB6307F58473A3F582731B68B3F8503072
:10370C009BB21A46BB6B1344BB6307F58473A3F5DA
:10371C0084731B681B781A01BB6B134403F20C43B4
:10372C007B637B6B1B889BB2C3F309039AB27B6BE5
:10373C001A80D7F804313E2B21D9D7F804315B0914
:10374C00C7F8F430D7F8043103F01F03002B04D171
:10375C00D7F8F430013BC7F8F4307B6B1B889AB276
:10376C00D7F8F4309BB29B029BB213439BB26FEA27
:10377C0043436FEA53439AB27B6B1A8050E0D7F8FD
:10378C000431002B0AD17B6B1B889BB26FEA43433D
:10379C006FEA53439AB27B6B1A8041E0D7F804313D
:1037AC005B08C7F8F430D7F8043103F00103002BA1
:1037BC0004D0D7F8F4300133C7F8F4307B6B1B8896
:1037CC009AB2D7F8F4309BB29B029BB213439AB2D5
:1037DC007B6B1A8024E007F58473A3F584731B6854
:1037EC005B78012B1CD107F58473A3F582731B68DE
:1037FC00B3F850309BB21A463B6C13443B6407F54C
:10380C008473A3F584731B681B781A013B6C1344F7
:10381C0003F20C43FB63D7F804319AB2FB6B1A80AA
:10382C0007F58473A3F584731B685B89A7F876305E
:10383C0007F58473A3F584731B685969D7F80431B1
:10384C009BB2B7F8762007F58470A0F582700068FB
:10385C0001F081F827E207F58473A3F584731B68E4
:10386C001B6AC7F8043107F58473A3F582731A68D1
:10387C0007F58473A3F584731B681B789B001344B2
:10388C001B889BB223F4E24323F07003A7F8623049
:10389C0007F58473A3F582731A6807F58473A3F58F
:1038AC0084731B681B789B001A44B7F8623043F092
:1038BC007F4343F47F0343F4004343F080039BB204
:1038CC00138007F58473A3F582731B68FB6507F5FA
:1038DC008473A3F582731B68B3F850309BB21A46FD
:1038EC00FB6D1344FB6507F58473A3F584731B68A8
:1038FC001B781A01FB6D134403F20443BB65D7F824
:10390C0004319AB2BB6D1A8007F58473A3F58473E6
:10391C001B681B89A7F8763007F58473A3F58473AD
:10392C001B685969D7F804319BB2B7F8762007F5B4
:10393C008470A0F58270006801F00DF8B3E107F512
:10394C008473A3F584731B681A6AD7F80431D21AEE
:10395C0007F58473A3F584731B681A6207F58473E7
:10396C00A3F582731A6807F58473A3F584731B6837
:10397C001B789B0013441B889BB203F04003002B65
:10398C0000F0C68007F58473A3F582731B683B6750
:10399C0007F58473A3F584731B685B78002B77D1D0
:1039AC0007F58473A3F582731B68BB6607F58473F4
:1039BC00A3F582731B68B3F850309BB21A46BB6EEA
:1039CC001344BB6607F58473A3F584731B681B78DB
:1039DC001A01BB6E134403F20C437B667B6E1B888F
:1039EC009BB2C3F309039AB27B6E1A80D7F80431E9
:1039FC003E2B21D9D7F804315B09C7F8F030D7F842
:103A0C00043103F01F03002B04D1D7F8F030013B35
:103A1C00C7F8F0307B6E1B889AB2D7F8F0309BB2A7
:103A2C009B029BB213439BB26FEA43436FEA53432F
:103A3C009AB27B6E1A8050E0D7F80431002B0AD171
:103A4C007B6E1B889BB26FEA43436FEA53439AB277
:103A5C007B6E1A8041E0D7F804315B08C7F8F03070
:103A6C00D7F8043103F00103002B04D0D7F8F03061
:103A7C000133C7F8F0307B6E1B889AB2D7F8F03060
:103A8C009BB29B029BB213439AB27B6E1A8024E0CA
:103A9C0007F58473A3F584731B685B78012B1CD129
:103AAC0007F58473A3F582731B68B3F850309BB28F
:103ABC001A463B6F13443B6707F58473A3F5847375
:103ACC001B681B781A013B6F134403F20C43FB6613
:103ADC00D7F804319AB2FB6E1A8007F58473A3F5FC
:103AEC0084731B685B89A7F8763007F58473A3F59C
:103AFC0084731B685969D7F804319BB2B7F87620E8
:103B0C0007F58470A0F58270006800F024FFCAE00D
:103B1C0007F58473A3F584731B685B78002B77D14E
:103B2C0007F58473A3F582731B68FB6707F5847331
:103B3C00A3F582731B68B3F850309BB21A46FB6F27
:103B4C001344FB6707F58473A3F584731B681B7818
:103B5C001A01FB6F134403F20443BB67BB6F1B8852
:103B6C009BB2C3F309039AB2BB6F1A80D7F8043126
:103B7C003E2B21D9D7F804315B09C7F8EC30D7F8C4
:103B8C00043103F01F03002B04D1D7F8EC30013BB8
:103B9C00C7F8EC30BB6F1B889AB2D7F8EC309BB2ED
:103BAC009B029BB213439BB26FEA43436FEA5343AE
:103BBC009AB2BB6F1A805CE0D7F80431002B0AD1A3
:103BCC00BB6F1B889BB26FEA43436FEA53439AB2B5
:103BDC00BB6F1A804DE0D7F804315B08C7F8EC30A6
:103BEC00D7F8043103F00103002B04D0D7F8EC30E4
:103BFC000133C7F8EC30BB6F1B889AB2D7F8EC30A6
:103C0C009BB29B029BB213439AB2BB6F1A8030E0FB
:103C1C0007F58473A3F584731B685B78012B28D19B
:103C2C0007F58473A3F582731B68C7F8843007F516
:103C3C008473A3F582731B68B3F850309BB21A4699
:103C4C00D7F884301344C7F8843007F58473A3F590
:103C5C0084731B681B781A01D7F88430134403F261
:103C6C000443C7F88030D7F804319AB2D7F88030C3
:103C7C001A8007F58473A3F584731B681B89A7F856
:103C8C00763007F58473A3F584731B685969D7F8EC
:103C9C0004319BB2B7F8762007F58470A0F58270DA
:103CAC00006800F058FE07F58473A3F582731A6858
:103CBC0007F58473A3F584731B681B789B0013446E
:103CCC001B889BB223F4E04323F040037B817B8968
:103CDC0083F010037B817B8983F020037B8107F5C4
:103CEC008473A3F582731A6807F58473A3F5847340
:103CFC001B681B789B001A447B8943F07F4343F479
:103D0C007F0343F4004343F080039BB2138000F025
:103D1C00DEBC07F58473A3F584731B681B7B002B37
:103D2C0040F0BB8007F58473A3F584731B689A6914
:103D3C0007F58473A3F584731B681B699A4217D922
:103D4C0007F58473A3F584731B681B69C7F80431EA
:103D5C0007F58473A3F584731B689A69D7F804314B
:103D6C00D21A07F58473A3F584731B689A610EE06D
:103D7C0007F58473A3F584731B689B69C7F804313A
:103D8C0007F58473A3F584731B6800229A6107F509
:103D9C008473A3F582731B68C7F8903007F584739E
:103DAC00A3F582731B68B3F850309BB21A46D7F850
:103DBC0090301344C7F8903007F58473A3F58473DF
:103DCC001B681B781A01D7F89030134403F20C438C
:103DDC00C7F88C30D7F88C301B889BB2C3F309031F
:103DEC009AB2D7F88C301A80D7F804313E2B24D9EC
:103DFC00D7F804315B09C7F8E830D7F8043103F081
:103E0C001F03002B04D1D7F8E830013BC7F8E8308A
:103E1C00D7F88C301B889AB2D7F8E8309BB29B024B
:103E2C009BB213439BB26FEA43436FEA53439AB27C
:103E3C00D7F88C301A8000F010BCD7F80431002B66
:103E4C000CD1D7F88C301B889BB26FEA43436FEAD6
:103E5C0053439AB2D7F88C301A80FEE3D7F804316A
:103E6C005B08C7F8E830D7F8043103F00103002BE6
:103E7C0004D0D7F8E8300133C7F8E830D7F88C30E5
:103E8C001B889AB2D7F8E8309BB29B029BB21343C3
:103E9C009AB2D7F88C301A80DFE307F58473A3F558
:103EAC0084731B68DB78022B40F0188207F584734F
:103EBC00A3F584731B685B78002B40F09D8007F59D
:103ECC008473A3F582731B68C7F8AC3007F5847351
:103EDC00A3F582731B68B3F850309BB21A46D7F81F
:103EEC00AC301344C7F8AC3007F58473A3F5847376
:103EFC001B681B781A01D7F8AC30134403F2044347
:103F0C00C7F8A830D7F8A8301B889BB2C3F30903B5
:103F1C009AB2D7F8A8301A8007F58473A3F5847386
:103F2C001B681B693E2B2BD907F58473A3F584738F
:103F3C001B681B695B09C7F8E43007F58473A3F5AC
:103F4C0084731B681B6903F01F03002B04D1D7F883
:103F5C00E430013BC7F8E430D7F8A8301B889AB29C
:103F6C00D7F8E4309BB29B029BB213439BB26FEA2F
:103F7C0043436FEA53439AB2D7F8A8301A8070E0E3
:103F8C0007F58473A3F584731B681B69002B0CD194
:103F9C00D7F8A8301B889BB26FEA43436FEA5343B0
:103FAC009AB2D7F8A8301A805BE007F58473A3F5B2
:103FBC0084731B681B695B08C7F8E43007F58473CE
:103FCC00A3F584731B681B6903F00103002B04D059
:103FDC00D7F8E4300133C7F8E430D7F8A8301B88A1
:103FEC009AB2D7F8E4309BB29B029BB213439AB2BD
:103FFC00D7F8A8301A8034E007F58473A3F58473DE
:10400C001B685B78012B2CD107F58473A3F58273A5
:10401C001B68C7F8B43007F58473A3F582731B686B
:10402C00B3F850309BB21A46D7F8B4301344C7F8E3
:10403C00B43007F58473A3F584731B681B781A01DD
:10404C00D7F8B430134403F20443C7F8B03007F583
:10405C008473A3F584731B681B699AB2D7F8B030CC
:10406C001A8007F58473A3F582731B68C7F8A43014
:10407C0007F58473A3F584731B685B78002B40F001
:10408C009D8007F58473A3F582731B68C7F89C3079
:10409C0007F58473A3F582731B68B3F850309BB299
:1040AC001A46D7F89C301344C7F89C3007F5847334
:1040BC00A3F584731B681B781A01D7F89C30134442
:1040CC0003F20C43C7F89830D7F898301B889BB292
:1040DC00C3F309039AB2D7F898301A8007F58473A2
:1040EC00A3F584731B681B693E2B2BD907F58473CE
:1040FC00A3F584731B681B695B09C7F8E03007F5EF
:10410C008473A3F584731B681B6903F01F03002BD6
:10411C0004D1D7F8E030013BC7F8E030D7F898303D
:10412C001B889AB2D7F8E0309BB29B029BB2134328
:10413C009BB26FEA43436FEA53439AB2D7F8983075
:10414C001A8069E007F58473A3F584731B681B69F7
:10415C00002B0CD1D7F898301B889BB26FEA4343E5
:10416C006FEA53439AB2D7F898301A8054E007F5A7
:10417C008473A3F584731B681B695B08C7F8E03074
:10418C0007F58473A3F584731B681B6903F00103A3
:10419C00002B04D0D7F8E0300133C7F8E030D7F863
:1041AC0098301B889AB2D7F8E0309BB29B029BB236
:1041BC0013439AB2D7F898301A802DE007F5847320
:1041CC00A3F584731B685B78012B25D107F58473E9
:1041DC00A3F582731B68B3F850309BB21A46D7F81C
:1041EC00A4301344C7F8A43007F58473A3F5847383
:1041FC001B681B781A01D7F8A430134403F20C4344
:10420C00C7F8A03007F58473A3F584731B681B698A
:10421C009AB2D7F8A0301A8007F58473A3F584738B
:10422C001B68DB69002B00F0188207F58473A3F57B
:10423C0082731A6807F58473A3F584731B681B7863
:10424C009B0013441B88A7F89630B7F8963003F4FC
:10425C008043002B05D0B7F8963003F04003002BB9
:10426C000DD1B7F8963003F48043002B40F0F58164
:10427C00B7F8963003F04003002B40F0EE8107F5C1
:10428C008473A3F582731A6807F58473A3F584739A
:10429C001B681B789B0013441B889BB223F4E043E0
:1042AC0023F07003A7F8943007F58473A3F5827399
:1042BC001A6807F58473A3F584731B681B789B003D
:1042CC001A44B7F8943043F07F4343F47F0343F42C
:1042DC00004343F0C0039BB21380BEE107F5847327
:1042EC00A3F584731B68DB78012B40F0B48107F5D0
:1042FC008473A3F584731B689A6907F58473A3F51B
:10430C0084731B681B699A4217D907F58473A3F54C
:10431C0084731B681B69C7F8043107F58473A3F514
:10432C0084731B689A69D7F80431D21A07F5847321
:10433C00A3F584731B689A610EE007F58473A3F5EB
:10434C0084731B689B69C7F8043107F58473A3F564
:10435C0084731B6800229A6107F58473A3F5847338
:10436C001B685B78002B40F0858007F58473A3F500
:10437C0082731B68C7F8CC3007F58473A3F582737E
:10438C001B68B3F850309BB21A46D7F8CC301344A4
:10439C00C7F8CC3007F58473A3F584731B681B78BE
:1043AC001A01D7F8CC30134403F20443C7F8C830D1
:1043BC00D7F8C8301B889BB2C3F309039AB2D7F85D
:1043CC00C8301A80D7F804313E2B23D9D7F80431E2
:1043DC005B09C7F8DC30D7F8043103F01F03002B5E
:1043EC0004D1D7F8DC30013BC7F8DC30D7F8C83043
:1043FC001B889AB2D7F8DC309BB29B029BB213435A
:10440C009BB26FEA43436FEA53439AB2D7F8C83072
:10441C001A8060E0D7F80431002B0CD1D7F8C830E3
:10442C001B889BB26FEA43436FEA53439AB2D7F8A7
:10443C00C8301A804FE0D7F804315B08C7F8DC307D
:10444C00D7F8043103F00103002B04D0D7F8DC308B
:10445C000133C7F8DC30D7F8C8301B889AB2D7F8CC
:10446C00DC309BB29B029BB213439AB2D7F8C83094
:10447C001A8030E007F58473A3F584731B685B78AE
:10448C00012B28D107F58473A3F582731B68C7F839
:10449C00D43007F58473A3F582731B68B3F85030DE
:1044AC009BB21A46D7F8D4301344C7F8D43007F56A
:1044BC008473A3F584731B681B781A01D7F8D43066
:1044CC00134403F20443C7F8D030D7F804319AB23E
:1044DC00D7F8D0301A8007F58473A3F582731B6864
:1044EC00C7F8C43007F58473A3F584731B685B7835
:1044FC00002B40F0858007F58473A3F582731B684D
:10450C00C7F8BC3007F58473A3F582731B68B3F846
:10451C0050309BB21A46D7F8BC301344C7F8BC30A5
:10452C0007F58473A3F584731B681B781A01D7F8FD
:10453C00BC30134403F20C43C7F8B830D7F8B8308A
:10454C001B889BB2C3F309039AB2D7F8B8301A8010
:10455C00D7F804313E2B23D9D7F804315B09C7F8BF
:10456C00D830D7F8043103F01F03002B04D1D7F84F
:10457C00D830013BC7F8D830D7F8B8301B889AB27E
:10458C00D7F8D8309BB29B029BB213439BB26FEA15
:10459C0043436FEA53439AB2D7F8B8301A805CE0C1
:1045AC00D7F80431002B0CD1D7F8B8301B889BB24C
:1045BC006FEA43436FEA53439AB2D7F8B8301A8084
:1045CC004BE0D7F804315B08C7F8D830D7F8043182
:1045DC0003F00103002B04D0D7F8D8300133C7F80F
:1045EC00D830D7F8B8301B889AB2D7F8D8309BB2ED
:1045FC009B029BB213439AB2D7F8B8301A802CE0C6
:10460C0007F58473A3F584731B685B78012B24D1A5
:10461C0007F58473A3F582731B68B3F850309BB213
:10462C001A46D7F8C4301344C7F8C43007F584735E
:10463C00A3F584731B681B781A01D7F8C430134494
:10464C0003F20C43C7F8C030D7F804319AB2D7F84C
:10465C00C0301A8001E001233AE007F58473A3F51A
:10466C0082731A6807F58473A3F584731B681B782F
:10467C009B0013441B889BB223F4804323F07003EC
:10468C00A7F88A30B7F88A3083F48053A7F88A30B9
:10469C00B7F88A3083F40053A7F88A3007F584738F
:1046AC00A3F582731A6807F58473A3F584731B68EA
:1046BC001B789B001A44B7F88A3043F07F4343F4CD
:1046CC007F0343F4004343F080039BB21380002329
:1046DC00184607F58477BD4680BD80B485B000AF21
:1046EC00786039603B685B78002B20D07A683B6837
:1046FC001B789B0013441B889BB223F4E04323F0EC
:10470C004003BB81BB8983F01003BB817A683B6893
:10471C001B789B001A44BB8943F07F4343F47F030F
:10472C0043F4004343F080039BB213801FE07A688C
:10473C003B681B789B0013441B889BB223F480437B
:10474C0023F07003FB81FB8983F48053FB817A682F
:10475C003B681B789B001A44FB8943F07F4343F46E
:10476C007F0343F4004343F080039BB21380002388
:10477C0018461437BD4680BC704780B487B000AF74
:10478C00786039603B681B7B002B40F09D803B6858
:10479C005B78002B4CD07A683B681B789B001344E9
:1047AC001B883B823B8A03F04003002B1BD07A68AA
:1047BC003B681B789B0013441B889BB223F4E0439B
:1047CC0023F07003FB817A683B681B789B001A44CA
:1047DC00FB8943F07F4343F47F0343F4004343F0EE
:1047EC00C0039BB213803B68DB78012B6CD07A68DA
:1047FC003B681B789B0013441B889BB223F4E0435B
:10480C0023F04003BB81BB8983F02003BB817A6812
:10481C003B681B789B001A44BB8943F07F4343F4ED
:10482C007F0343F4004343F080039BB213804BE0BF
:10483C007A683B681B789B0013441B88FB82FB8ABD
:10484C0003F48043002B1BD07A683B681B789B00D9
:10485C0013441B889BB223F4E04323F07003BB8208
:10486C007A683B681B789B001A44BB8A43F07F43F1
:10487C0043F47F0343F4404343F080039BB2138023
:10488C007A683B681B789B0013441B889BB223F40B
:10489C00804323F070037B827B8A83F480537B827A
:1048AC007B8A83F400537B827A683B681B789B007D
:1048BC001A447B8A43F07F4343F47F0343F4004361
:1048CC0043F080039BB21380002318461C37BD466F
:1048DC0080BC704780B483B000AF78600B46FB702F
:1048EC00FB78002B03D17B688022A3F84C2000239B
:1048FC0018460C37BD4680BC704780B483B000AFFF
:10490C007860002318460C37BD4680BC704780B4D5
:10491C0083B000AF7860002318460C37BD4680BCCE
:10492C00704780B485B000AF78607B68B3F84430D2
:10493C009BB2FB60FB6818461437BD4680BC7047C1
:10494C0080B483B000AF78603960002318460C3710
:10495C00BD4680BC704780B48BB000AFF860B960C6
:10496C0011461A460B46FB801346BB80BB880133AD
:10497C005B08BB61FB687B61BB68FB61FB885A0011
:10498C007B69134403F580633B62BB697B621EE069
:10499C00FB691B787B82FB6901331B781B021AB203
:1049AC00B7F9123013431BB27B823B6A7A8A1A80A6
:1049BC003B6A02333B623B6A02333B62FB69013365
:1049CC00FB61FB690133FB617B6A013B7B627B6AA8
:1049DC00002BDDD100BF00BF2C37BD4680BC70471B
:1049EC0080B48BB000AFF860B96011461A460B4624
:1049FC00FB801346BB80BB885B089BB2BB61FB682A
:104A0C007B61BB68FB61FB885A007B69134403F52F
:104A1C0080633B62BB697B621BE03B6A1B889BB279
:104A2C003B613B6A02333B623B69DAB2FB691A7049
:104A3C00FB690133FB613B691B0ADAB2FB691A7033
:104A4C00FB690133FB613B6A02333B627B6A013BCE
:104A5C007B627B6A002BE0D1BB8803F001039BB225
:104A6C00002B07D03B6A1B889BB23B613B69DAB2D7
:104A7C00FB691A7000BF2C37BD4680BC704780B5EF
:104A8C0084B000AF78600B46FB700023FB737B682F
:104A9C001B7C002B15D14FF4007302228121786806
:104AAC0001F045FE7B680122DA624FF400730222AA
:104ABC000121786801F03BFE7B680122C3F86C2170
:104ACC0012E0402302228121786801F030FE7B68DD
:104ADC000122DA62402302220121786801F027FECC
:104AEC007B680122C3F86C21082303228221786899
:104AFC0001F01DFE7B6801221A644FF4077001F06F
:104B0C003DFF02467B68C3F8B8227B68D3F8B83205
:104B1C00002B02D10123FB7326E07B68D3F8B8325B
:104B2C00BB607B68D3F8BC321B689847BB6800221B
:104B3C00C3F81422BB680022C3F818227B681B7CC4
:104B4C00002B09D1BB68D3F804224FF40073012168
:104B5C00786801F0DCFE07E0BB68D3F80422402340
:104B6C000121786801F0D3FEFB7B18461037BD4657
:104B7C0080BD80B584B000AF78600B46FB7000231D
:104B8C00FB738121786801F0F8FD7B680022DA6202
:104B9C000121786801F0F1FD7B680022C3F86C21DB
:104BAC008221786801F0E9FD7B6800221A647B6839
:104BBC00D3F8B832002B0ED07B68D3F8BC325B68CC
:104BCC0098477B68D3F8B832184601F0E3FE7B684F
:104BDC000022C3F8B822FB7B18461037BD4680BDB7
:104BEC0080B586B000AF786039607B68D3F8B83296
:104BFC003B610023FB730023BB810023FB753B68E7
:104C0C001B7803F06003002B39D0202B7FD13B683D
:104C1C00DB88002B29D03B681B785BB2002B11DAA8
:104C2C007B68D3F8BC329B683A68507839693A682B
:104C3C00D288984739693B68DB881A46786801F056
:104C4C00D5F96BE03B685A783B6983F800223B68E6
:104C5C00DB88DAB23B6983F8012239693B68DB886F
:104C6C001A46786801F0F0F958E07B68D3F8BC324A
:104C7C009B683A6850780022396898474EE03B6848
:104C8C005B780B2B2ED00B2B38DC002B02D00A2B95
:104C9C0014D033E07B6893F89C32032B07D107F1D7
:104CAC000C0302221946786801F0A0F92EE039684D
:104CBC00786801F031F90223FB7527E07B6893F8E3
:104CCC009C32032B07D107F10F0301221946786898
:104CDC0001F08CF91AE03968786801F01DF90223AB
:104CEC00FB7513E07B6893F89C32032B0DD039686D
:104CFC00786801F011F90223FB7506E039687868D1
:104D0C0001F00AF90223FB7500E000BF06E03968E8
:104D1C00786801F001F90223FB7500BFFB7D184692
:104D2C001837BD4680BD80B584B000AF78600B46A7
:104D3C00FB707B68D3F8B832FB607B68D3F8C03269
:104D4C00BB607B68D3F8B832002B3AD0FA7879681C
:104D5C0013469B0013449B000B441C331B68002B15
:104D6C0029D0FA78796813469B0013449B000B44B6
:104D7C001C331A68F978B8680B469B000B44DB00AF
:104D8C00034420331B68B2FBF3F101FB03F3D31A8A
:104D9C00002B10D1FA78796813469B0013449B00C2
:104DAC000B441C3300221A60F97800230022786827
:104DBC0001F08AFD03E0FB680022C3F814220023F3
:104DCC0000E0022318461037BD4680BD80B584B084
:104DDC0000AF78600B46FB707B68D3F8B832FB6091
:104DEC00FB781946786801F0B5FD0246FB68C3F8FC
:104DFC000C227B68D3F8B832002B0DD07B68D3F82B
:104E0C00BC32DB68FA68D2F80402FA6802F5037265
:104E1C0011469847002300E0022318461037BD4680
:104E2C0080BD80B584B000AF78607B68D3F8B832B1
:104E3C00FB607B68D3F8BC32002B14D0FB6893F872
:104E4C000032FF2B0FD07B68D3F8BC329B68FA681A
:104E5C0092F80002F968FA6892F801229847FB6808
:104E6C00FF2283F80022002318461037BD4680BD70
:104E7C0080B483B000AF78607B6843221A80034B08
:104E8C0018460C37BD4680BC704700BFBC000020E4
:104E9C0080B483B000AF78607B6843221A80034BE8
:104EAC0018460C37BD4680BC704700BF7800002008
:104EBC0080B483B000AF78607B6843221A80034BC8
:104ECC0018460C37BD4680BC704700BF000100205F
:104EDC0080B483B000AF78607B680A221A80034BE1
:104EEC0018460C37BD4680BC704700BF340000200C
:104EFC0080B485B000AF786039600223FB733B68E7
:104F0C00002B05D07B683A68C3F8BC220023FB73E6
:104F1C00FB7B18461437BD4680BC704780B487B005
:104F2C0000AFF860B9601346FB80FB68D3F8B83269
:104F3C007B617B69BA68C3F80822FA887B69C3F87D
:104F4C001022002318461C37BD4680BC704780B425
:104F5C0085B000AF786039607B68D3F8B832FB60FD
:104F6C00FB683A68C3F80422002318461437BD4680
:104F7C0080BC704780B584B000AF78607B68D3F894
:104F8C00B832FB607B68D3F8B832002B17D07B6843
:104F9C001B7C002B09D1FB68D3F804224FF400735F
:104FAC000121786801F0B3FC07E0FB68D3F8042218
:104FBC0040230121786801F0AAFC002300E00223C1
:104FCC0018461037BD4680BD80B584B000AFF86080
:104FDC00B9601346FB71FB68002B01D102231AE068
:104FEC00FB68D3F8B432002B03D0FB680022C3F863
:104FFC00B422BB68002B03D0FB68BA68C3F8B0229C
:10500C00FB68012283F89C22FB68FA791A70F86815
:10501C0001F018FB002318461037BD4680BD80B444
:10502C0085B000AF786039600023FB733B68002BC0
:10503C0006D07B683A68C3F8B4220023FB7301E006
:10504C000223FB73FB7B18461437BD4680BC7047AC
:10505C0080B582B000AF7860786801F04DFB00231A
:10506C0018460837BD4680BD80B483B000AF786069
:10507C00002318460C37BD4680BC704780B584B001
:10508C0000AF78600B46FB700223FB737B68D3F890
:10509C00B432002B0CD07B68D3F8B4321B68FA788E
:1050AC001146786898470346002B01D10023FB7307
:1050BC00FB7B18461037BD4680BD80B582B000AF73
:1050CC0078600B46FB707B68D3F8B4325B68FA7877
:1050DC00114678689847002318460837BD4680BDAE
:1050EC0080B582B000AF786039607B6803F52A73B5
:1050FC003968184600F0D7FE7B680122C3F8942269
:10510C007B68B3F8AE321A467B68C3F898227B688A
:10511C0093F8A83203F01F03022B16D0022B1CD8D5
:10512C00002B02D0012B08D017E07B6803F52A7303
:10513C001946786800F0CAF91AE07B6803F52A73FF
:10514C001946786800F02CFA12E07B6803F52A7394
:10515C001946786800F06CFA0AE07B6893F8A8327C
:10516C0023F07F03DBB21946786801F025FB00BF02
:10517C00002318460837BD4680BD80B586B000AF09
:10518C00F8600B467A60FB72FB7A002B4BD1FB6804
:10519C0003F5AA737B61FB68D3F89432032B34D1EB
:1051AC007B69DA687B691B699A4219D97B69DA6871
:1051BC007B691B69D21A7B69DA607B69DA687B6967
:1051CC001B699A4203D27B69DB689BB202E07B6964
:1051DC001B699BB21A467968F86800F053FF38E0F7
:1051EC00FB68D3F8B4321B69002B0AD0FB6893F828
:1051FC009C32032B05D1FB68D3F8B4321B69F868D9
:10520C009847F86800F050FF23E0FB68D3F894321D
:10521C00052B1ED1FB680022C3F894220021F868EC
:10522C0001F0CAFA15E0FB68D3F8B4329B69002B85
:10523C000DD0FB6893F89C32032B08D1FB68D3F894
:10524C00B4329B69FA7A1146F868984701E0022358
:10525C0000E0002318461837BD4680BD80B586B0E7
:10526C0000AFF8600B467A60FB72FB7A002B7FD1A3
:10527C00FB6814337B61FB68D3F89432022B5CD14E
:10528C007B69DA687B691B699A4215D97B69DA6894
:10529C007B691B69D21A7B69DA607B69DB689BB21C
:1052AC001A467968F86800F0BDFE00230022002140
:1052BC00F86801F02CFB4EE07B699B687A691269F7
:1052CC00B3FBF2F101FB02F29B1A002B1CD17B69A0
:1052DC009A687B691B699A4216D37B699A68FB684A
:1052EC00D3F898329A420FD200220021F86800F0CD
:1052FC0099FEFB680022C3F89822002300220021AB
:10530C00F86801F004FB26E0FB68D3F8B432DB68E4
:10531C00002B0AD0FB6893F89C32032B05D1FB6859
:10532C00D3F8B432DB68F86898478021F86801F04C
:10533C0043FAF86800F0CBFE0DE0FB68D3F894322A
:10534C00042B04D0FB68D3F89432002B03D18021BA
:10535C00F86801F031FAFB6893F8A032012B1DD1EB
:10536C00F868FFF781FEFB68002283F8A02215E0A5
:10537C00FB68D3F8B4325B69002B0DD0FB6893F853
:10538C009C32032B08D1FB68D3F8B4325B69FA7AF0
:10539C001146F868984701E0022300E00023184604
:1053AC001837BD4680BD80B582B000AF7860402311
:1053BC0000220021786801F0BAF97B680122C3F859
:1053CC0058217B684022C3F86421402300228021AD
:1053DC00786801F0ACF97B6801229A617B68402205
:1053EC005A627B68012283F89C227B680022C3F8F6
:1053FC0094227B6800225A607B680022C3F8A422A6
:10540C007B68D3F8B832002B09D07B68D3F8B43260
:10541C005B687A685268D2B2114678689847002364
:10542C0018460837BD4680BD80B483B000AF7860A5
:10543C000B46FB707B68FA781A74002318460C37FD
:10544C00BD4680BC704780B483B000AF78607B6889
:10545C0093F89C227B6883F89D227B68042283F856
:10546C009C22002318460C37BD4680BC704780B484
:10547C0083B000AF78607B6893F89C32042B05D125
:10548C007B6893F89D227B6883F89C220023184646
:10549C000C37BD4680BC704780B582B000AF7860D9
:1054AC007B6893F89C32032B0BD17B68D3F8B43216
:1054BC00DB69002B05D07B68D3F8B432DB697868E4
:1054CC009847002318460837BD4680BD80B584B088
:1054DC0000AF786039600023FB733B681B7803F0E6
:1054EC006003402B05D0402B4FD8002B09D0202B2C
:1054FC004BD17B68D3F8B4329B683968786898478D
:10550C0048E03B685B78092B39D801A252F823F0AC
:10551C006D550008815500088B550008775500081B
:10552C008B5500084F550008455500088B55000851
:10553C0063550008595500083968786800F0DCF9A3
:10554C0022E03968786800F03FFB1DE03968786824
:10555C0000F07EFB18E03968786800F007FC13E077
:10556C003968786800F037FC0EE03968786800F02C
:10557C0065FC09E03968786800F074FC04E039686F
:10558C00786800F0C9FC00BF04E03968786800F066
:10559C00C3FC00BFFB7B18461037BD4680BD00BF67
:1055AC0080B584B000AF786039600023FB733B6832
:1055BC001B7803F06003402B05D0402B2ED8002B1A
:1055CC0001D0202B2AD17B6893F89C32013B022B13
:1055DC001DD83B689B88DBB2012B13D87B68D3F8B2
:1055EC00B4329B683968786898470346FB733B680C
:1055FC00DB88002B10D1FB7B002B0DD1786800F0E1
:10560C0053FD09E03968786800F086FC04E03968DD
:10561C00786800F081FC00E000BF04E0396878682D
:10562C0000F07AFC00BF002318461037BD4680BD41
:10563C0080B584B000AF786039600023FB733B68A1
:10564C009B88BB733B681B7803F06003402B07D02F
:10565C00402B00F24681002B0AD0202B40F04181D8
:10566C007B68D3F8B4329B683968786898473DE119
:10567C003B681B7803F06003202B0AD17B68D3F8BE
:10568C00B4329B683968786898470346FB73FB7B98
:10569C002DE13B685B78032B07D0032B00F31B81B8
:1056AC00002B72D0012B3AD015E17B6893F89C3219
:1056BC00022B02D0032B15D02BE0BB7B002B0CD084
:1056CC00BB7B802B09D0BB7B1946786801F074F842
:1056DC008021786801F070F820E03968786800F073
:1056EC001BFC1BE03B685B88002B0ED1BB7B002BAB
:1056FC000BD0BB7B802B08D03B68DB88002B04D104
:10570C00BB7B1946786801F057F8786800F0CCFC40
:10571C0004E03968786800F0FFFB00BFE0E07B68CC
:10572C0093F89C32022B02D0032B15D026E0BB7BC6
:10573C00002B0CD0BB7B802B09D0BB7B1946786827
:10574C0001F03AF88021786801F036F81CE03968ED
:10575C00786800F0E1FB17E03B685B88002B12D106
:10576C00BB7B03F07F03002B04D0BB7B194678680E
:10577C0001F041F8786800F097FC04E0396878682B
:10578C0000F0CAFB00E000BFAAE07B6893F89C32F3
:10579C00022B02D0032B32D097E0BB7B002B07D01F
:1057AC00BB7B802B04D03968786800F0B5FB91E0A6
:1057BC0097F90E30002B0BDABB7B03F07F021346FC
:1057CC009B0013449B0010337A68134404330BE0A2
:1057DC00BB7B03F07F0213469B0013449B0003F535
:1057EC00A8737A6813440433BB60BB6800221A6048
:1057FC00BB6802221946786800F0F8FB6AE097F95A
:10580C000E30002B11DABB7B03F00F0279681346C4
:10581C009B0013449B000B4418331B68002B17D1BF
:10582C003968786800F078FB54E0BB7B03F00F021A
:10583C00796813469B0013449B000B4403F5AC732F
:10584C001B68002B04D13968786800F065FB41E0D7
:10585C0097F90E30002B0BDABB7B03F07F0213465B
:10586C009B0013449B0010337A68134404330BE001
:10587C00BB7B03F07F0213469B0013449B0003F594
:10588C00A8737A6813440433BB60BB7B002B02D033
:10589C00BB7B802B03D1BB6800221A600EE0BB7B64
:1058AC001946786800F0C6FF0346002B03D0BB688E
:1058BC0001221A6002E0BB6800221A60BB68022257
:1058CC001946786800F092FB04E03968786800F0BB
:1058DC0023FB00BF04E03968786800F01DFB00BFB3
:1058EC0004E03968786800F017FB00BFFB7B1846B2
:1058FC001037BD4680BD000080B584B000AF786025
:10590C00396000233B810023FB600023FB723B6862
:10591C005B881B0A9BB2013B062B00F2288101A27B
:10592C0052F823F04D59000865590008A559000894
:10593C007B5B00087B5B00081B5B0008475B000877
:10594C007B68D3F8B0321B687A68127C07F10801C7
:10595C0010469847F86012E17B681B7C002B0DD138
:10596C007B68D3F8B4329B6A07F10802104698475B
:10597C00F860FB68013302221A7000E17B68D3F8EF
:10598C00B432DB6A07F1080210469847F860FB68EE
:10599C00013302221A70F2E03B685B88DBB2052B04
:1059AC0000F2AC8001A252F823F000BFD1590008DC
:1059BC00055A0008395A00086D5A0008A15A000807
:1059CC00D55A00087B68D3F8B0325B68002B0BD03B
:1059DC007B68D3F8B0325B687A68127C07F10801F7
:1059EC0010469847F86091E03968786800F094FAAE
:1059FC00FB7A0133FB7289E07B68D3F8B0329B6889
:105A0C00002B0BD07B68D3F8B0329B687A68127C81
:105A1C0007F1080110469847F86077E03968786814
:105A2C0000F07AFAFB7A0133FB726FE07B68D3F8F3
:105A3C00B032DB68002B0BD07B68D3F8B032DB685C
:105A4C007A68127C07F1080110469847F8605DE00F
:105A5C003968786800F060FAFB7A0133FB7255E024
:105A6C007B68D3F8B0321B69002B0BD07B68D3F862
:105A7C00B0321B697A68127C07F10801104698470E
:105A8C00F86043E03968786800F046FAFB7A013335
:105A9C00FB723BE07B68D3F8B0325B69002B0BD018
:105AAC007B68D3F8B0325B697A68127C07F1080125
:105ABC0010469847F86029E03968786800F02CFAAD
:105ACC00FB7A0133FB7221E07B68D3F8B0329B691F
